{
  "_format": "hh-sol-artifact-1",
  "contractName": "ConsumptionStorage",
  "sourceName": "contracts/ConsumptionStorage.sol",
  "abi": [
    {
      "inputs": [],
      "stateMutability": "nonpayable",
      "type": "constructor"
    },
    {
      "inputs": [
        {
          "internalType": "string",
          "name": "_date",
          "type": "string"
        }
      ],
      "name": "GetPlannedData",
      "outputs": [
        {
          "internalType": "string",
          "name": "",
          "type": "string"
        }
      ],
      "stateMutability": "view",
      "type": "function"
    },
    {
      "inputs": [
        {
          "internalType": "string",
          "name": "_hash",
          "type": "string"
        },
        {
          "internalType": "string",
          "name": "_date",
          "type": "string"
        }
      ],
      "name": "SetPlannedData",
      "outputs": [],
      "stateMutability": "nonpayable",
      "type": "function"
    }
  ],
  "bytecode": "0x608060405234801561001057600080fd5b50336000806101000a81548173ffffffffffffffffffffffffffffffffffffffff021916908373ffffffffffffffffffffffffffffffffffffffff160217905550610742806100606000396000f3fe608060405234801561001057600080fd5b50600436106100365760003560e01c806337301ec41461003b578063bd4a68bb14610057575b600080fd5b6100556004803603810190610050919061045b565b610087565b005b610071600480360381019061006c91906104d3565b6101ae565b60405161007e91906105a4565b60405180910390f35b60006001826040516100999190610602565b908152602001604051809103902080546100b290610648565b80601f01602080910402602001604051908101604052809291908181526020018280546100de90610648565b801561012b5780601f106101005761010080835404028352916020019161012b565b820191906000526020600020905b81548152906001019060200180831161010e57829003601f168201915b505050505090506000815114610176576040517f08c379a000000000000000000000000000000000000000000000000000000000815260040161016d906106ec565b60405180910390fd5b826001836040516101879190610602565b908152602001604051809103902090805190602001906101a892919061025e565b50505050565b60606001826040516101c09190610602565b908152602001604051809103902080546101d990610648565b80601f016020809104026020016040519081016040528092919081815260200182805461020590610648565b80156102525780601f1061022757610100808354040283529160200191610252565b820191906000526020600020905b81548152906001019060200180831161023557829003601f168201915b50505050509050919050565b82805461026a90610648565b90600052602060002090601f01602090048101928261028c57600085556102d3565b82601f106102a557805160ff19168380011785556102d3565b828001600101855582156102d3579182015b828111156102d25782518255916020019190600101906102b7565b5b5090506102e091906102e4565b5090565b5b808211156102fd5760008160009055506001016102e5565b5090565b6000604051905090565b600080fd5b600080fd5b600080fd5b600080fd5b6000601f19601f8301169050919050565b7f4e487b7100000000000000000000000000000000000000000000000000000000600052604160045260246000fd5b6103688261031f565b810181811067ffffffffffffffff8211171561038757610386610330565b5b80604052505050565b600061039a610301565b90506103a6828261035f565b919050565b600067ffffffffffffffff8211156103c6576103c5610330565b5b6103cf8261031f565b9050602081019050919050565b82818337600083830152505050565b60006103fe6103f9846103ab565b610390565b90508281526020810184848401111561041a5761041961031a565b5b6104258482856103dc565b509392505050565b600082601f83011261044257610441610315565b5b81356104528482602086016103eb565b91505092915050565b600080604083850312156104725761047161030b565b5b600083013567ffffffffffffffff8111156104905761048f610310565b5b61049c8582860161042d565b925050602083013567ffffffffffffffff8111156104bd576104bc610310565b5b6104c98582860161042d565b9150509250929050565b6000602082840312156104e9576104e861030b565b5b600082013567ffffffffffffffff81111561050757610506610310565b5b6105138482850161042d565b91505092915050565b600081519050919050565b600082825260208201905092915050565b60005b8381101561055657808201518184015260208101905061053b565b83811115610565576000848401525b50505050565b60006105768261051c565b6105808185610527565b9350610590818560208601610538565b6105998161031f565b840191505092915050565b600060208201905081810360008301526105be818461056b565b905092915050565b600081905092915050565b60006105dc8261051c565b6105e681856105c6565b93506105f6818560208601610538565b80840191505092915050565b600061060e82846105d1565b915081905092915050565b7f4e487b7100000000000000000000000000000000000000000000000000000000600052602260045260246000fd5b6000600282049050600182168061066057607f821691505b6020821081141561067457610673610619565b5b50919050565b7f546865206461746120697320616c72656164792073746f72656420666f72207460008201527f6869732064617465000000000000000000000000000000000000000000000000602082015250565b60006106d6602883610527565b91506106e18261067a565b604082019050919050565b60006020820190508181036000830152610705816106c9565b905091905056fea264697066735822122036a9732e692963b33f9550ce316f1401f614a55a7e7c11b942da31af18a6905364736f6c634300080b0033",
  "linkReferences": {},
  "deployedLinkReferences": {}
}